:100000000C942A000C943F000C943F000C943F0089
:100010000C943F000C943F000C943F000C943F0064
:100020000C943F000C943F000C943F000C943F0054
:100030000C943F000C943F000C943F000C943F0044
:100040000C943F000C943F000C943F000C943F0034
:100050000C943F0011241FBECFE5D8E0DEBFCDBF1A
:1000600010E0A0E6B0E0E2EBF3E002C005900D92F4
:10007000A23AB107D9F70E9441000C94D7010C9421
:1000800000000F931F93CF93DF9383E390E00E94D0
:10009000960080E00E9410018FEF87BB80E060E057
:1000A0000E94A70180E690E00E943B0180E061E0B1
:1000B0000E94A7018BE690E00E943B0180E197E25D
:1000C00029E130E0F9013197F1F70197D9F781E0A3
:1000D00090E060E070E00E94E80001E0C4ECD9E04C
:1000E00012E00E949D00813641F408BB80E060E090
:1000F0000E94A70188E790E009C0823651F418BB3E
:1001000080E060E00E94A70184E890E00E943B014B
:10011000E8CF18BA80E060E00E94A70181E990E092
:100120000E943B01CE010197F1F7DBCF89B990BD69
:1001300086E880BD88ED8AB908955F9BFECF8CB1BB
:1001400008955D9BFECF8CB90895FC015D9BFECFA9
:1001500083E28CB95D9BFECF83E08CB95D9BFECFC3
:1001600081E003C05D9BFECF31968CB980818823EE
:10017000C9F75D9BFECF8AE08CB9089584B3807F78
:1001800084BB959A969881E08A95F1F721E0979A39
:10019000822F8A95F1F783B38295807F922F9A956B
:1001A000F1F79798922F9A95F1F7979A922F9A953F
:1001B000F1F793B3922F9A95F1F79798922F9A951A
:1001C000F1F787FDE4CF959884B38F6084BB0895E1
:1001D000382F662311F4969801C0969A21E0822F59
:1001E0008A95F1F7979A85B3932F92959F70807FA8
:1001F000982B95BB822F8A95F1F79798822F8A9535
:10020000F1F7979A85B33F70807F832B85BB822F50
:100210008A95F1F797982A95F1F70E94BE00089504
:100220001F93182F8BE39BE20197F1F784B38F6044
:1002300084BB8F9A8E9A8D9A85B3807F85BB979861
:100240009598969881E0982F9A95F1F7979AA99AA0
:10025000982F9A95F1F797988A95F1F70E94BE002A
:10026000812F8C6060E00E94E80088E260E00E94DC
:10027000E8001F910895CF93DF93EC0104C061E083
:100280000E94E800219688818823C9F7DF91CF91E9
:100290000895EF92FF920F931F93DF93CF9300D0B7
:1002A00000D00F92CDB7DEB79C018B01FE013196D5
:1002B00085E0DF011D928A95E9F7FE0135960DC0B4
:1002C000C9016AE070E00E94B0018083C9016AE060
:1002D00070E00E94B0019B0131972115310581F733
:1002E000BFEF0F3F1B0779F420E030E0AE014F5F16
:1002F0005F4F02C02F5F3F4FFA01E20FF31F808173
:100300008823C1F304C025E030E0201B310B7E01BF
:100310000894E11CF11CE20EF31E890109C0F701EB
:1003200081917F01805D61E00E94E8000F5F1F4FB7
:1003300005301105A4F30F900F900F900F900F90C0
:10034000CF91DF911F910F91FF90EF900895883228
:1003500030F461118064806860E00E94E8000895D4
:1003600097FB092E07260AD077FD04D00CD006D0C3
:1003700000201AF4709561957F4F0895F6F79095D7
:1003800081959F4F0895AA1BBB1B51E107C0AA1F6F
:10039000BB1FA617B70710F0A61BB70B881F991F26
:1003A0005A95A9F780959095BC01CD010895F894D0
:0203B000FFCF7D
:1003B2004D41544C414220475549005769746820C9
:1003C20050524F54455553004C454420424C5545DC
:1003D200204F4E004C454420475245454E204F4E3B
:1003E200006E6F74696E6720726563656976656415
:0203F200000009
:00000001FF
